:020000040800F2
:1000000000500020C1110008F10F0008F30F000894
:10001000F50F0008F70F0008F90F000800000000B6
:10002000000000000000000000000000FB0F0008BE
:10003000FD0F000800000000FF0F0008011000087D
:100040000912000809120008091200080912000824
:100050000912000809120008091200080912000814
:100060000912000809120008091200080912000804
:1000700009120008091200080912000809120008F4
:1000800009120008091200080912000809120008E4
:1000900009120008091200080912000809120008D4
:1000A00009120008091200080912000809120008C4
:1000B00009120008091200080912000809120008B4
:1000C00009120008091200080912000809120008A4
:1000D0000912000809120008091200080912000894
:1000E00009120008091200080912000800000000A7
:1000F0000000000000000000000000000000000000
:0C01000000000000000000005FF808F1A3
:10010C000348044B834202D0034B03B1184770479A
:10011C002800002028000020000000000548064BA5
:10012C001B1AD90F01EBA301491002D0034B03B1E9
:10013C00184770472800002028000020000000000D
:10014C0010B5064C237843B9FFF7DAFF044B13B113
:10015C000448AFF300800123237010BD2800002059
:10016C0000000000DC2A000808B5054B1BB105494E
:10017C000548AFF30080BDE80840FFF7CFBF00BFD4
:10018C00000000002C000020DC2A000800B587B01D
:10019C008DF817004FF480730293012301930DF136
:1001AC001702009200227821024801F097FC07B058
:1001BC005DF804FB4400002010B5C82001F06AF87B
:1001CC00002405E0044B185DFFF7E0FF0134E4B2B6
:1001DC00162CF7D910BD00BF0000002000B587B069
:1001EC008DF817004FF480730293012301930DF1E6
:1001FC001702009240227821024801F06FFC07B0F0
:10020C005DF804FB4400002038B5002509E000200F
:10021C00FFF7E4FF0134E4B214F0800FF7D001359E
:10022C00EDB2072D0CD8A5F15000C0B2FFF7AEFF10
:10023C000020FFF7ABFF1020FFF7A8FF0024EBE72F
:10024C0038BD10B50446A1F15000C0B2FFF79EFFB7
:10025C00200940F01000FFF799FF04F00F00FFF7A2
:10026C0095FF10BD0246012002E002FB00F019468A
:10027C004B1EDBB20029F8D1704700002DE9F0418C
:10028C0080460F469DF81860203AD5B210F0800FCA
:10029C0007D1102B0AD039464046FFF7D2FF002475
:1002AC0047E00237FFB24FF00008F2E7394640460C
:1002BC00FFF7C7FF002407E004EB0513254AD05CC9
:1002CC00FFF78CFF0134E4B2072C0AD8002EF3D0D0
:1002DC0004EB05131F4AD05CC043C0B2FFF77EFF8E
:1002EC00F0E7791CC9B24046FFF7ABFF002408E0E9
:1002FC0004EB05130833174AD05CFFF76FFF01348A
:10030C00E4B2072C24D8002EF2D004EB05130833EA
:10031C00104AD05CC043C0B2FFF760FFEFE705EBBB
:10032C0045020D4B03EB4203185DFFF757FF0134F9
:10033C00E4B2052C0CD8002EF1D005EB4502064B8F
:10034C0003EB4203185DC043C0B2FFF747FFEEE773
:10035C00BDE8F081202B0008003100082DE9F043A6
:10036C0083B004460E4617461D469DF828804FF074
:10037C00000909E00634E4B214E00136F6B20024B8
:10038C0009F101005FFA80F917F80920B2B1CDF834
:10039C0000802B4631462046FFF770FF0C2DE9D02C
:1003AC000834E4B27A2C01D90C2DE6D0782CE7D99C
:1003BC00102DE5D10136F6B20024E1E703B0BDE81B
:1003CC00F08300002DE9F04F83B0824689469046B9
:1003DC001D469DF830609DF834B000273C461DE06A
:1003EC00700804FB00F0C0B25044CDF800B03346A6
:1003FC0020224946C0B2FFF741FF0DE0700804FB14
:10040C0000F0C0B230325044CDF800B03346D2B216
:10041C004946C0B2FFF732FF0134E4B2AC421AD203
:10042C00291BC9B20139C9B20A20FFF71BFFB8FB5F
:10043C00F0F00A4AA2FB0032D20802EB8202A0EBD7
:10044C004202D2B2002FD9D16B1E9C42D6DA002ABE
:10045C00C6D00127D2E703B0BDE8F08FCDCCCCCC11
:10046C002DE9F04188B00024049405940694079477
:10047C002E4B9A6942F010029A619A6902F01002AE
:10048C000092009A9A6942F020029A619A6902F0ED
:10049C0020020192019A9A6942F004029A619A69C7
:1004AC0002F004020292029A9A6942F008029A61DE
:1004BC009B6903F008030393039BDFF874802246C7
:1004CC004FF40051404601F078F81A4E2246802134
:1004DC00304601F072F84FF4005304930125059552
:1004EC0006950227079704A9404600F051FF4FF4E8
:1004FC00704304930594069504A9304600F048FF18
:10050C004FF4706304930594069504A90A4800F00F
:10051C003FFF8023049305950695079704A9304661
:10052C0000F036FF08B0BDE8F08100BF00100240BB
:10053C0000100140000C01400008014008B50B48B8
:10054C000B4B03600B4B436000238360C3604FF481
:10055C008042026143618361C361036201F0E0F98F
:10056C0000B908BD00F044F8FBE700BF44000020D0
:10057C0000540040A086010010B586B00023029301
:10058C000393049305930268154B9A4201D006B06D
:10059C0010BD144CA36943F00803A361A36903F0D5
:1005AC0008030093009B4FF44073029312230393B0
:1005BC000323059302A90C4800F0EAFE0B4A53688A
:1005CC0043F0E06343F002035360E36943F4001328
:1005DC00E361E36903F400130193019BD7E700BFC8
:1005EC000054004000100240000C0140000001408B
:1005FC0072B6FEE700B591B02822002106A802F0E1
:10060C0087F900230193029303930493059301222A
:10061C0006924FF4803307930A9202220D920E93A6
:10062C004FF4E0130F9306A801F020FB80B90F23C1
:10063C00019302210291002303934FF480620492F0
:10064C00059301A801F044FD20B911B05DF804FB3D
:10065C00FFF7CEFFFFF7CCFF00B583B000F0F6FD3F
:10066C00FFF7C8FFFFF7FCFEFFF768FF00F04AFD3D
:10067C0000F0C6FCFFF7A0FDFFF7C6FD0421D7482C
:10068C0002F0A2F8D64801F099FED64C00224FF4A5
:10069C008051204600F091FF00224FF4005120467B
:1006AC0000F08BFF00224FF48041204600F085FFC4
:1006BC0000224FF40041204600F07FFFCA4D01227A
:1006CC004FF48071284600F078FF01224FF400713E
:1006DC00284600F072FF01224FF48061284600F09A
:1006EC006CFF01224FF40061284600F066FF0122E6
:1006FC008021204600F061FF002400941023BB4AA7
:10070C0021462046FFF72AFE00941023B84A022106
:10071C002046FFF723FE00941023B64A04212046FE
:10072C00FFF71CFEDFE3AF4C01224FF48051204653
:10073C0000F043FF01224FF40051204600F03DFF32
:10074C0001224FF48041204600F037FF01224FF484
:10075C000041204600F031FFA4F5806400224FF4E4
:10076C008071204600F029FF00224FF400712046D2
:10077C0000F023FF00224FF48061204600F01DFFA3
:10078C0000224FF40061204600F017FF4FF48071F7
:10079C00204600F00BFF012848D04FF4007192481E
:1007AC0000F004FF01284FD04FF480618E4800F018
:1007BC00FDFE012856D04FF400618B4800F0F6FE88
:1007CC0001285DD0874C00224FF48051204600F068
:1007DC00F4FE00224FF40051204600F0EEFE002201
:1007EC004FF48041204600F0E8FE00224FF4004117
:1007FC00204600F0E2FEA4F5806401224FF48071E3
:10080C00204600F0DAFE01224FF40071204600F081
:10081C00D4FE01224FF48061204600F0CEFE01226E
:10082C004FF40061204600F0C8FE64E3322000F073
:10083C0031FD4FF480716C4800F0B8FE0128F8D0FF
:10084C006D4B08221A60A8E7322000F023FD4FF40C
:10085C000071654800F0AAFE0128F8D0674B4222CF
:10086C001A60A1E7322000F015FD4FF480615E485C
:10087C0000F09CFE0128F8D05F4B09221A609AE721
:10088C00322000F007FD4FF40061574800F08EFE57
:10089C000128F8D0584B04221A6093E7514C0122DE
:1008AC004FF48051204600F088FE01224FF4005195
:1008BC00204600F082FE01224FF48041204600F0D9
:1008CC007CFE01224FF40041204600F076FEA4F598
:1008DC00806400224FF48071204600F06EFE0022EE
:1008EC004FF40071204600F068FE00224FF4806146
:1008FC00204600F062FE00224FF40061204600F01A
:10090C005CFE4FF48071204600F050FE012848D068
:10091C004FF40071344800F049FE01284FD04FF4D9
:10092C008061314800F042FE012869D04FF400612B
:10093C002D4800F03BFE012870D02A4C00224FF4C9
:10094C008051204600F039FE00224FF40051204621
:10095C0000F033FE00224FF48041204600F02DFEC3
:10096C0000224FF40041204600F027FEA4F58064DD
:10097C0001224FF48071204600F01FFE01224FF43B
:10098C000071204600F019FE01224FF480612046D0
:10099C0000F013FE01224FF40061204600F00DFE22
:1009AC00B1E2322000F076FC4FF480710E4800F07A
:1009BC00FDFD0128F8D0114B07221A60A8E7322060
:1009CC0000F068FC4FF40071074800F0EFFD0128BF
:1009DC00F8D00A4B08221A60A1E700BFEC000020F7
:1009EC00A4000020000C014000080140F42A00087B
:1009FC00002B0008082B000898000020A000002005
:100A0C00322000F047FC4FF48061CD4800F0CEFD61
:100A1C000128F8D0CB4B09221A6087E7322000F06E
:100A2C0039FC4FF40061C64800F0C0FD0128F8D035
:100A3C00C54B03221A6080E7C44C01224FF480514D
:100A4C00204600F0BAFD01224FF40051204600F080
:100A5C00B4FD01224FF48041204600F0AEFD01228E
:100A6C004FF40041204600F0A8FDA4F5806400225C
:100A7C004FF48071204600F0A0FD00224FF400716D
:100A8C00204600F09AFD00224FF48061204600F0D1
:100A9C0094FD00224FF40061204600F08EFD4FF4CF
:100AAC008071204600F082FD012848D04FF400717F
:100ABC00A34800F07BFD01284FD04FF48061A04883
:100ACC0000F074FD012856D04FF400619C4800F0F2
:100ADC006DFD01285DD09D4C00224FF480512046C5
:100AEC0000F06BFD00224FF40051204600F065FD34
:100AFC0000224FF48041204600F05FFD00224FF4AD
:100B0C000041204600F059FDA4F5806401224FF409
:100B1C008071204600F051FD01224FF400712046F7
:100B2C0000F04BFD01224FF48061204600F045FDA2
:100B3C0001224FF40061204600F03FFDEBE1322032
:100B4C0000F0A8FB4FF480717D4800F02FFD0128C8
:100B5C00F8D07C4B04221A60A8E7322000F09AFBF4
:100B6C004FF40071764800F021FD0128F8D0754B48
:100B7C0005221A60A1E7322000F08CFB4FF4806153
:100B8C006F4800F013FD0128F8D06E4B06221A6056
:100B9C009AE7322000F07EFB4FF40061684800F0C9
:100BAC0005FD0128F8D0684B02221A6093E7674CC8
:100BBC0001224FF48051204600F0FFFC01224FF43B
:100BCC000051204600F0F9FC01224FF480412046F0
:100BDC0000F0F3FC01224FF40041204600F0EDFC44
:100BEC00A4F5806400224FF48071204600F0E5FCEF
:100BFC0000224FF40071204600F0DFFC00224FF47D
:100C0C008061204600F0D9FC00224FF400612046A0
:100C1C0000F0D3FC4FF48071204600F0C7FC012893
:100C2C0048D04FF40071464800F0C0FC01284FD06A
:100C3C004FF48061424800F0B9FC012856D04FF4C3
:100C4C0000613F4800F0B2FC01285DD03F4C00220F
:100C5C004FF48051204600F0B0FC00224FF40051BC
:100C6C00204600F0AAFC00224FF48041204600F000
:100C7C00A4FC00224FF40041204600F09EFCA4F599
:100C8C00806401224FF48071204600F096FC012212
:100C9C004FF40071204600F090FC01224FF480616B
:100CAC00204600F08AFC01224FF40061204600F03F
:100CBC0084FC38E1322000F0EDFA4FF480712048CA
:100CCC0000F074FC0128F8D01E4B01221A60A8E732
:100CDC00322000F0DFFA4FF40071194800F066FC86
:100CEC000128F8D0174B02221A60A1E7322000F03D
:100CFC00D1FA4FF48061124800F058FC0128F8D06A
:100D0C00104B03221A609AE7322000F0C3FA4FF41A
:100D1C0000610B4800F04AFC0128F8D00A4B012274
:100D2C001A6093E70A490B680A4A82FB0302DB1735
:100D3C00C3EBA2030B60044B00221A60F8E000BF67
:100D4C0000080140A000002098000020000C014089
:100D5C009C00002067666666894B1A6840F644233F
:100D6C009A4230D0002400941023864A0421482053
:100D7C00FFF7F4FA824B1C600194102300930523B7
:100D8C00224621465020FFF71DFB7F4C8021204638
:100D9C0000F019FC642000F07DFA8021204600F060
:100DAC0012FC642000F076FA8021204600F00BFC47
:100DBC00642000F06FFA8021204600F004FC734B95
:100DCC0000221A60B9E0002400941023704A042118
:100DDC004820FFF7C3FA6A4B1C6001941023009360
:100DEC000523224621465020FFF7ECFA664C802161
:100DFC00204600F0E8FB642000F04CFA80212046ED
:100E0C0000F0E1FB642000F045FA8021204600F060
:100E1C00DAFB642000F03EFA8021204600F0D3FB80
:100E2C00642000F037FA8021204600F0CCFB6420CF
:100E3C0000F030FA8021204600F0C5FB554D2B68A0
:100E4C0032229A6342F2107000F024FA2B68FA22D4
:100E5C009A63642000F01EFA8021204600F0B3FB58
:100E6C00642000F017FA8021204600F0ACFB6420CF
:100E7C0000F010FA8021204600F0A5FB642000F061
:100E8C0009FA8021204600F09EFB642000F002FA53
:100E9C008021204600F097FB642000F0FBF98021B4
:100EAC00204600F090FB8AE703EB83035B00344A97
:100EBC001360394B00221A6048E00024364B1C604A
:100ECC0001941025009505232D4A126821465020C7
:100EDC00FFF778FA0194009505232C4A1268022139
:100EEC005020FFF76FFA4FF48051274800F05EFB5B
:100EFC0001283FF418AC4FF40051234800F056FB86
:100F0C0001283FF4CBAC4FF480411F4800F04EFB5E
:100F1C0001283FF491AD4FF400411B4800F046FB13
:100F2C0001283FF444AE194B1B68082B3FF4FAAE72
:100F3C00164B1B68092B3FF40FAF114B1B68B3F515
:100F4C007A7FBADA144A1268422AADD0124B196869
:100F5C000029B2D00A48036803EB83035B000360EB
:100F6C000E4C84FB0124CA17C2EBA40202EB8202D2
:100F7C00A1EB420213440360074B00221A609CE76A
:100F8C009C000020182B0008000C01409800002049
:100F9C00102B0008EC000020A0000020676666669D
:100FAC0082B00E4B9A6942F001029A619A6902F082
:100FBC0001020092009ADA6942F08052DA61DB6930
:100FCC0003F080530193019B054A536823F0E063BF
:100FDC0043F00073536002B0704700BF0010024032
:100FEC0000000140FEE7FEE7FEE7FEE7FEE7704784
:100FFC007047704708B500F03BF908BD704700001A
:10100C0000B587B0002302930393049305930093D8
:10101C0001931548154A026041F61F4242608360F5
:10102C0040F2CF72C2600361836101F03FFA90B964
:10103C004FF48053029302A90B4801F037FB68B9B7
:10104C000023009301936946074801F02BFC40B93B
:10105C0007B05DF804FBFFF7CBFAE9E7FFF7C8FA36
:10106C00EEE7FFF7C5FAF3E7A40000200004004008
:10107C0082B00368B3F1804F04D00E4A93420DD076
:10108C0002B0704703F50433DA6942F00102DA6109
:10109C00DB6903F001030093009BF1E7064BDA696F
:1010AC0042F00202DA61DB6903F002030193019B57
:1010BC00E6E700BF000400400010024000B587B016
:1010CC00002302930393049305930368B3F1804FB9
:1010DC0002D007B05DF804FB03F504339A6942F0C3
:1010EC0004029A619B6903F004030193019B0223A0
:1010FC0002930393059302A9014800F049F9E8E72C
:10110C000008014000B58FB000230A930B930C9399
:10111C000D930893099301930293039304930593FE
:10112C000693079322484FF08042026040F2CF2290
:10113C004260836040F2CF72C2600361836101F050
:10114C00B5F930BB4FF480530A930AA9184801F043
:10115C00ADFA08BB164801F0D5F900BB0023089383
:10116C00099308A9124801F09DFBD8B9602301939B
:10117C00002302930393059304220DEB02010C4808
:10118C0001F01AFA88B90A48FFF798FF0FB05DF81A
:10119C0004FBFFF72DFAD5E7FFF72AFADAE7FFF79A
:1011AC0027FADBE7FFF724FAE0E7FFF721FAEAE793
:1011BC00EC000020FFF722FF0B480C490C4A0023DF
:1011CC0002E0D458C4500433C4188C42F9D3094AF1
:1011DC00094C002301E013600432A242FBD301F05E
:1011EC00E7FBFFF739FA70470000002028000020C9
:1011FC006033000828000020D0020020FEE7000029
:10120C0010B504460E4B1A784FF47A73B3FBF2F315
:10121C000C4A1068B0FBF3F000F0A6F868B90F2C7C
:10122C0001D901200AE0002221464FF0FF3000F0E6
:10123C008BF8054B1C60002000E0012010BD00BFA6
:10124C001C000020180000202000002008B5074AD0
:10125C00136843F010031360032000F063F80F20B1
:10126C00FFF7CEFFFFF79CFE002008BD00200240D8
:10127C00034A1168034B1B780B441360704700BF83
:10128C00340100201C000020014B1868704700BF7F
:10129C003401002038B50446FFF7F6FF0546B4F1DB
:1012AC00FF3F02D0044B1B781C44FFF7EDFF401BA3
:1012BC00A042FAD338BD00BF1C000020002808DB78
:1012CC000901C9B200F1604000F5614080F80013DB
:1012DC00704700F00F000901C9B2014B1954704757
:1012EC0014ED00E000B500F00700C0F1070CBCF1F4
:1012FC00040F28BF4FF0040C031D062B0FD9C31E7F
:10130C004FF0FF3E0EFA0CF021EA000199400EFA64
:10131C0003FE22EA0E0241EA02005DF804FB002300
:10132C00EEE70000074AD36823F4E0631B041B0CB0
:10133C00000200F4E060034343F0BF6343F4003366
:10134C00D360704700ED00E010B50446054BD8683B
:10135C00C0F30220FFF7C6FF01462046FFF7AEFFA1
:10136C0010BD00BF00ED00E00138B0F1807F0BD262
:10137C004FF0E0235861054AF02182F82310002039
:10138C00986107221A6170470120704700ED00E058
:10139C0070B582B00024A446A1E07E4DAB4214D0BF
:1013AC000CD8A5F58015AB420FD005F57025AB42D6
:1013BC000BD0A5F58015AB4210D106E0764DAB42B3
:1013CC0003D005F58035AB4208D18B68002B50D08B
:1013DC00012B49D04261082400E0CC68BEF1FF0F1C
:1013EC0049D806464FEA8C0233680F25954023EA0C
:1013FC00050304FA02F2134333604B6813F0805F69
:10140C006BD0664B9A6942F001029A619B6903F0BA
:10141C0001030193019B4FEA9C02951C604B53F80E
:10142C0025600CF00305AD000F23AB4026EA030644
:10143C005C4B984226D003F58063984200F08C8078
:10144C0003F58063984200F0898003F5806398422D
:10145C0016D0042317E0CC680434BFE7CC680834FA
:10146C00BCE7CC680C34B9E702610824B6E7002469
:10147C00B4E70424B2E7061DACF108029200B3E70E
:10148C00032300E00023AB4033430232444D45F8C4
:10149C0022304B6813F4801F62D0434A936843EAAE
:1014AC000E0393604B6813F4001F5FD03E4AD36861
:1014BC0043EA0E03D3604B6813F4003F5CD03A4A06
:1014CC00536843EA0E0353604B6813F4803F59D0C2
:1014DC00354A136843EA0E0313600CF1010C0B68D8
:1014EC0033FA0CF254D0012202FA0CF203EA020E87
:1014FC0032EA0303F1D14B68122B3FF64EAF122B9D
:10150C003FF66CAF01A555F823F000BFD7130008C8
:10151C00E7130008691400087B140008E91300089D
:10152C00E9130008E9130008E9130008E91300089F
:10153C00E9130008E9130008E9130008E91300088F
:10154C00E9130008E9130008E9130008E91300087F
:10155C00631400086F140008012394E7022392E738
:10156C00114A936823EA0E0393609BE70E4AD368F3
:10157C0023EA0E03D3609EE70B4A536823EA0E035B
:10158C005360A1E7084A136823EA0E031360A4E72B
:10159C0002B070BD0000221000003110001002409B
:1015AC00000001400008014000040140836819421A
:1015BC0001D001207047002070470AB101617047CB
:1015CC00090401617047C36801EA030221EA0301BF
:1015DC0041EA02410161704703685A6912F4806F55
:1015EC0001D1002070476FF480625A6100230363BD
:1015FC00202280F83D2080F83E30026C42F004023C
:10160C00026480F83C30012070472DE9F041064619
:10161C000C46174698463BE0FFF736FE069BC01A71
:10162C00404502D8B8F1000F32D1012D18D03368E3
:10163C009B6924EA03039BB2B3FA83F35B099F42D1
:10164C0026D100233363202286F83D2086F83E30D5
:10165C00326C42F02002326486F83C30012027E0E4
:10166C0033685B6924EA03039BB2B3FA83F35B0927
:10167C00E5E733685B6924EA030C1FFA8CFCBCFABF
:10168C008CFC4FEA5C1C674511D1B8F1FF3FC3D10C
:10169C00C4F30745012DECD033689B6924EA030C95
:1016AC001FFA8CFCBCFA8CFC4FEA5C1CEBE70020AC
:1016BC00BDE8F0812DE9F84305460E469046994663
:1016CC0053E01A6842F400721A602B686FF480625F
:1016DC005A6100232B63202285F83D2085F83E308B
:1016EC002A6C42F004022A6485F83C3001204AE05E
:1016FC00FFF7CAFDA0EB0900404502D8B8F1000F76
:10170C0033D1012F17D02B689B6926EA03039BB2B8
:10171C00003B18BF012343B300232B63202285F821
:10172C003D2085F83E302A6C42F020022A6485F870
:10173C003C30012027E02B685B6926EA03039BB24F
:10174C00003B18BF0123E6E72B689C6926EA0404DA
:10175C00A4B2003C18BF0124A4B12B685A6912F43E
:10176C00806FAED1B8F1FF3FC2D1C6F30747012F4E
:10177C00EAD12B685C6926EA0404A4B2003C18BFC9
:10178C000124E9E70020BDE8F88370B504460D4656
:10179C00164623685B6913F0800F21D12046FFF7B2
:1017AC001BFFF8B9B5F1FF3FF3D0FFF76DFD801BC0
:1017BC00A84201D8002DECD123685B6913F0800F8F
:1017CC00E7D100232363202284F83D2084F83E30A7
:1017DC00226C42F02002226484F83C30012000E0AC
:1017EC00002070BD0120FCE72DE9F04385B00446D4
:1017FC000D4691461F46DDF830800D9E0368196832
:10180C0041F4807119600096434600224FF001119B
:10181C00FFF7FBFE60B9236805F0FE051D6133463A
:10182C00424626492046FFF745FF68B1012008E0F3
:10183C0023681B6813F4807F02D04FF40073236479
:10184C00032005B0BDE8F0830023039323685A6995
:10185C0003929B690393039B324641462046FFF754
:10186C0094FF30B9012F0FD123685FFA89F61E61FE
:10187C00E7E7236C042B01D00120E2E72268136810
:10188C0043F400731360F7E723684FEA19221A61D7
:10189C00324641462046FFF778FF20B923685FFAAD
:1018AC0089F61E61CDE7236C042B01D00120C8E71B
:1018BC002268136843F400731360F7E70200010019
:1018CC0070B504460D46164623685B6913F0040F89
:1018DC0021D12046FFF780FEF8B9B5F1FF3FF3D0D8
:1018EC00FFF7D2FC801BA84201D8002DECD1236855
:1018FC005B6913F0040FE7D100232363202284F8E3
:10190C003D2084F83E30226C42F02002226484F8A0
:10191C003C30012000E0002070BD0120FCE70000FD
:10192C00002800F0CC8070B5044690F83D30002BB8
:10193C0077D0242384F83D302268136823F0010308
:10194C0013602268136843F4004313602268136821
:10195C0023F40043136000F077FC62685A4B9A4200
:10196C0064D85A4B98428CBF00230123002B40F0C3
:10197C00A8805749A1FB00318B0C25686A6822F0BE
:10198C003F0242EA91426A6021680A6A22F03F02F1
:10199C0066684D4DAE424FD8013313430B6221683C
:1019AC00CA6922F44F4222F0FF026568464B9D4201
:1019BC004CD8431E6D00B3FBF5F3013340F6FC70BD
:1019CC00034278D0C3F30B031A43CA6121680B6836
:1019DC0023F0C003E269206A024313430B602168C1
:1019EC008B6823F4034323F0FF032269E06802436E
:1019FC0013438B602168CB6823F0FF036269A069F5
:101A0C0002431343CB602268136843F00103136055
:101A1C0000202064202384F83D30206384F83E00AD
:101A2C0070BD80F83C30FEF7A7FD82E7294B984249
:101A3C008CBF0023012399E74FF4967505FB03F344
:101A4C00254DA5FB03539B090133A6E7A668BEB938
:101A5C00431E05EB450CB3FBFCF30133C3F30B0343
:101A6C00B3FA83F35B0943BBC6B9431E05EB4505CB
:101A7C00B3FBF5F30133C3F30B0343F40043A3E7C8
:101A8C00431E05EB850C0CEB8C0CB3FBFCF3013308
:101A9C00C3F30B03B3FA83F35B09E4E7431E05EBD3
:101AAC00850505EB8505B3FBF5F30133C3F30B0398
:101ABC0043F4404388E7042386E7012384E70120AD
:101ACC0070470120ACE700BFA08601007F841E0098
:101ADC0083DE1B43FF083D00D34D62102DE9F0431C
:101AEC0083B004460F46904699460C9EFFF7CCFBFC
:101AFC00054694F83D00C0B2202803D0022003B064
:101B0C00BDE8F0830095192301224B492046FFF7CD
:101B1C007CFD002840F0898094F83C30012B00F0CB
:101B2C008680012384F83C3023681A6812F0010F78
:101B3C0003D11A6842F001021A602268136823F478
:101B4C0000631360212384F83D30402384F83E3039
:101B5C00002323640A9B6362BDF82C306385638D7C
:101B6C002385364BE362019500964B464246394637
:101B7C002046FFF739FE00285BD1238D002B35D092
:101B8C002A4631462046FFF700FE20BB626A2368D6
:101B9C0012781A61626A531C6362218D013989B211
:101BAC002185638D9BB2013B9BB263852368586989
:101BBC0010F0040FE1D00029DFD052781A61636A6B
:101BCC0001336362238D013B2385638D9BB2013B03
:101BDC009BB26385D1E7236C042B01D001208EE7E7
:101BEC002268136843F400731360F7E72A46314602
:101BFC002046FFF765FE50B1236C042B01D0012069
:101C0C007DE72268136843F400731360F7E72268DA
:101C1C00136843F400731360202384F83D300023D1
:101C2C0084F83E3084F83C3069E7022067E70220F4
:101C3C0065E7012063E700BF020010000000FFFF12
:101C4C0082B0084B1B68084AA2FB03235B0A00FB0B
:101C5C0003F3019300BF019B5A1E0192002BF9D193
:101C6C0002B0704718000020D34D6210002800F01D
:101C7C00F18170B582B00446036813F0010F2CD0CB
:101C8C00994B5B6803F00C03042B1DD0964B5B68DF
:101C9C0003F00C03082B12D06368B3F5803F41D0DE
:101CAC00002B55D103F1804303F504331A6822F459
:101CBC0080321A601A6822F480221A6037E08A4B4C
:101CCC005B6813F4803FE7D0874B1B6813F4003F2D
:101CDC0003D06368002B00F0BF81236813F0020F60
:101CEC0075D0814B5B6813F00C0F5FD07E4B5B683B
:101CFC0003F00C03082B54D02369002B00F08A80CE
:101D0C007A4B01221A60FFF7BFFA0546764B1B6827
:101D1C0013F0020F75D1FFF7B7FA401B0228F5D963
:101D2C0003209EE1704A136843F4803313606368A8
:101D3C0043B3FFF7A9FA05466B4B1B6813F4003F3E
:101D4C00CBD1FFF7A1FA401B6428F5D9032088E119
:101D5C00B3F5A02F09D0644B1A6822F480321A60B4
:101D6C001A6822F480221A60E1E703F18043A3F59C
:101D7C003C331A6842F480221A601A6842F48032AA
:101D8C001A60D4E7FFF780FA0546574B1B6813F42B
:101D9C00003FA2D0FFF778FA401B6428F5D9032046
:101DAC005FE1514B5B6813F4803FA5D14E4B1B6830
:101DBC0013F0020F03D02369012B40F04F814A4AE4
:101DCC00136823F0F803616943EAC10313602368C5
:101DDC0013F0080F33D0A369002B5CD0434B0122C6
:101DEC00C3F88024FFF750FA05463F4B5B6A13F0AB
:101DFC00020F21D1FFF748FA401B0228F5D9032026
:101E0C002FE1394A136823F0F803616943EAC103EF
:101E1C001360DCE7354B00221A60FFF735FA0546F4
:101E2C00314B1B6813F0020FD1D0FFF72DFA401B7A
:101E3C000228F5D9032014E10120FFF701FF2368E4
:101E4C0013F0040F00F09680274BDB6913F0805FD2
:101E5C0034D1254BDA6942F08052DA61DB6903F048
:101E6C0080530193019B0125214B1B6813F4807F48
:101E7C0026D0E368012B3DD0002B53D103F18043D6
:101E8C0003F504331A6A22F001021A621A6A22F06C
:101E9C0004021A6233E0154B0022C3F88024FFF7CA
:101EAC00F3F90546104B5B6A13F0020FC7D0FFF72E
:101EBC00EBF9401B0228F5D90320D2E00025D3E72B
:101ECC000B4A136843F480731360FFF7DDF9064681
:101EDC00074B1B6813F4807FCBD1FFF7D5F9801B20
:101EEC006428F5D90320BCE00010024000004242F7
:101EFC00007000405F4A136A43F001031362E36809
:101F0C0033B3FFF7C1F906465A4B1B6A13F0020FA5
:101F1C002FD1FFF7B9F9801B41F288339842F3D9DE
:101F2C0003209EE0052B09D0524B1A6A22F00102C5
:101F3C001A621A6A22F004021A62E0E74D4B1A6A1E
:101F4C0042F004021A621A6A42F001021A62D6E7DF
:101F5C00FFF79AF90646474B1B6A13F0020F08D09D
:101F6C00FFF792F9801B41F288339842F3D9032092
:101F7C0077E0E5B9E369002B72D03E4A526802F073
:101F8C000C02082A56D0022B17D03B4B00221A66A3
:101F9C00FFF77AF90446374B1B6813F0007F47D0E4
:101FAC00FFF772F9001B0228F5D9032059E0314ADA
:101FBC00D36923F08053D361DCE72F4B00221A66E0
:101FCC00FFF762F905462B4B1B6813F0007F06D018
:101FDC00FFF75AF9401B0228F5D9032041E0236A88
:101FEC00B3F5803F1AD023494B6823F47413226A4B
:101FFC00606A024313434B601F4B01221A66FFF7C2
:10200C0043F904461B4B1B6813F0007F0ED1FFF7FE
:10201C003BF9001B0228F5D9032022E0154A53682E
:10202C0023F40033A1680B435360DCE7002018E075
:10203C00002016E0012B16D00E4B5B6803F48031A8
:10204C00226A914211D103F47013626A93420ED149
:10205C00002006E001207047012002E0012000E092
:10206C00002002B070BD0120FBE70120F9E7012040
:10207C00F7E700BF00100240000042420F4B5B68C4
:10208C0003F00C02082A01D00D487047C3F38342B9
:10209C000C49885C13F4803F0BD0084B5B68C3F38E
:1020AC004043094AD35C064A02FB00F0B0FBF3F054
:1020BC007047064B03FB00F0704700BF0010024056
:1020CC0000127A00443300084033000800093D0038
:1020DC00002800F0A08070B50D460446524B1B68DA
:1020EC0003F007038B420BD24F4A136823F007030C
:1020FC000B431360136803F007038B4240F08D8091
:10210C00236813F0020F17D013F0040F04D0474AC2
:10211C00536843F4E0635360236813F0080F04D052
:10212C00424A536843F460535360404A536823F067
:10213C00F003A1680B435360236813F0010F31D0F7
:10214C006368012B20D0022B25D0384A126812F07C
:10215C00020F64D035494A6822F0030213434B60E6
:10216C00FFF792F80646314B5B6803F00C0362688C
:10217C00B3EB820F16D0FFF787F8801B41F2883340
:10218C009842F0D9032045E0284A126812F4003F27
:10219C00E0D101203EE0254A126812F0007FD9D12F
:1021AC00012037E0204B1B6803F00703AB420AD930
:1021BC001D4A136823F007032B431360136803F0C5
:1021CC000703AB422DD1236813F0040F06D0174A36
:1021DC00536823F4E063E1680B435360236813F006
:1021EC00080F07D0114A536823F46053216943EA5E
:1021FC00C1035360FFF742FF0C4B5B68C3F303133F
:10220C000B4AD35CD8400B4B18600B4B1868FEF78D
:10221C00F7FF002070BD012070470120FAE7012074
:10222C00F8E70120F6E700BF002002400010024052
:10223C00303300081800002020000020014B1868E3
:10224C00704700BF1800002008B5FFF7F7FF044BDC
:10225C005B68C3F30223034AD35CD84008BD00BFBC
:10226C00001002402833000830B4026A036A23F0DD
:10227C00010303624568836923F073030C681C43F4
:10228C0022F002028B6813430B4A904206D0456041
:10229C0084614A684263036230BC704723F00803D0
:1022AC00CA681A4322F0040325F440754A692A438C
:1022BC008D691543EBE700BF002C014030B4036A75
:1022CC00026A22F4807202624468C26922F07302CC
:1022DC000D68154323F400738A6843EA02230D4A00
:1022EC00904206D04460C5614A68C263036230BC48
:1022FC00704723F40063CA6843EA022323F4806323
:10230C0024F440544A6944EA02148A6944EA0214E7
:10231C00E8E700BF002C014030B4036A026A22F4E3
:10232C00805202624468C26922F4E6420D6842EAB5
:10233C00052223F400538D6843EA0533074DA84268
:10234C0006D04460C2614A680264036230BC7047C4
:10235C0024F480444D6944EA8514F2E7002C0140D2
:10236C0010B4036A046A24F001040462846924F042
:10237C00F00C4CEA021223F00A030B438261036255
:10238C0010BC704710B4036A046A24F01004046291
:10239C00846924F4704C4CEA023223F0A00343EA23
:1023AC0001138261036210BC7047836823F07003D1
:1023BC000B4343F0070383607047000090F83D30F7
:1023CC00DBB2012B27D1022380F83D300268D368A1
:1023DC0043F00103D3600368114A934210D0B3F168
:1023EC00804F0DD0A2F59432934209D002F5806251
:1023FC00934205D01A6842F001021A60002070471F
:10240C009A6802F00702062A07D01A6842F0010205
:10241C001A6000207047012070470020704700BFF1
:10242C00002C01407047000003681F4A90420AD0FC
:10243C00B0F1804F07D0A2F59432904203D002F550
:10244C008062904203D123F070034A681343164A0A
:10245C0090420AD0B0F1804F07D0A2F5943290424E
:10246C0003D002F58062904203D123F44073CA6812
:10247C00134323F080034A69134303608B68C362E0
:10248C000B688362084B98420AD0012343610369AD
:10249C0013F0010F03D0036923F0010303617047AC
:1024AC000B690363F1E700BF002C014040B310B58A
:1024BC00044690F83D30F3B1022384F83D302146B8
:1024CC0051F8040BFFF7B0FF012384F8463084F871
:1024DC003E3084F83F3084F8403084F8413084F842
:1024EC00423084F8433084F8443084F8453084F822
:1024FC003D30002010BD80F83C30FEF7B9FDDBE725
:10250C000120704740B310B5044690F83D30F3B14C
:10251C00022384F83D30214651F8040BFFF784FF69
:10252C00012384F8463084F83E3084F83F3084F838
:10253C00403084F8413084F8423084F8433084F8D9
:10254C00443084F8453084F83D30002010BD80F8CC
:10255C003C30FFF767FFDBE70120704730B4036ABC
:10256C00026A22F0100202624468826922F4E64296
:10257C000D6842EA052223F020038D6843EA051317
:10258C000C4DA84206D0446082614A6882630362A3
:10259C0030BC704723F08003CD6843EA051323F069
:1025AC00400324F440644D6944EA85048D6944EA8F
:1025BC008504E8E7002C014038B590F83C30012B3D
:1025CC0066D004460D46012380F83C300C2A5AD8BC
:1025DC00DFE802F0075959591B59595930595959C3
:1025EC0044000068FFF740FE2268936943F008033B
:1025FC0093612268936923F00403936122689369C1
:10260C0029690B43936100203EE00068FFF7A6FFA9
:10261C002268936943F4006393612268936923F4FD
:10262C008063936122689369296943EA012393616A
:10263C00002029E00068FFF741FE2268D36943F0CF
:10264C000803D3612268D36923F00403D3612268A1
:10265C00D36929690B43D361002015E00068FFF7AB
:10266C005BFE2268D36943F40063D3612268D369AB
:10267C0023F48063D3612268D369296943EA012377
:10268C00D361002000E00120002384F83C3038BDE9
:10269C000220FCE710B4846824F47F4C42EA032245
:1026AC000A4342EA0C02826010BC704790F83C303E
:1026BC00012B78D010B50446012380F83C3002235E
:1026CC0080F83D300268936823F47F4323F077034E
:1026DC0093600B68602B4CD023D8402B54D011D86E
:1026EC00202B03D00AD80BB1102B05D1194620682A
:1026FC00FFF75BFE002028E0012026E0302BF5D010
:10270C00012022E0502B0AD1CA6849680068FFF703
:10271C0027FE50212068FFF748FE002015E001201D
:10272C0013E0B3F5805F3AD0B3F5005F14D0702B93
:10273C0037D1CB684A6889680068FFF7ABFF22681D
:10274C00936843F0770393600020012384F83D30B5
:10275C00002384F83C3010BDCB684A688968006857
:10276C00FFF798FF2268936843F48043936000203E
:10277C00EBE7CA6849680068FFF704FE602120682F
:10278C00FFF713FE0020E0E7CA6849680068FFF70E
:10279C00E7FD40212068FFF708FE0020D5E7002068
:1027AC00D3E70120D1E70220704701F01F014FF061
:1027BC00010C0CFA01FC036A23EA0C030362036AA2
:1027CC008A4013430362704710B50446084651BB58
:1027DC0094F83E30DBB2013B18BF0123002B5BD1D8
:1027EC00002839D1022384F83E30012201462068AA
:1027FC00FFF7DBFF23682A4A93423DD02368284A1F
:10280C0093423ED0B3F1804F3BD0A2F59432934229
:10281C0037D002F58062934233D01A6842F001023D
:10282C001A60002039E0042908D008290DD094F84A
:10283C004130DBB2013B18BF0123CFE794F83F30A6
:10284C00DBB2013B18BF0123C8E794F84030DBB280
:10285C00013B18BF0123C1E7042805D0082807D085
:10286C00022384F84130C0E7022384F83F30BCE7F0
:10287C00022384F84030B8E75A6C42F400425A64A0
:10288C00BCE79A6802F00702062A07D01A6842F0E1
:10289C0001021A60002000E0012010BD0020FCE7BE
:1028AC00002C014090F83C20012A2CD010B4034697
:1028BC00012280F83C20022280F83D2002685068FA
:1028CC00946820F0700C086840EA0C0050601A689C
:1028DC000E4882420AD0B2F1804F07D0A0F5943056
:1028EC00824203D000F58060824204D124F080043F
:1028FC00496821439160012283F83D20002083F830
:10290C003C0010BC70470220704700BF002C0140F7
:10291C0070B5860747D0541E002A3ED00346CAB273
:10292C0001E0013C39D303F8012B9D07F9D1032CAD
:10293C002CD9CDB205EB05250F2C1A4605EB054518
:10294C0034D9A4F1100C2CF00F0603F1100EB64480
:10295C004FEA1C1CC2E90055C2E9025510327245FF
:10296C00F8D10CF1010214F00C0F03EB021204F07D
:10297C000F0C13D0ACF1040323F003030433134402
:10298C0042F8045B9342FBD10CF003042CB1C9B2A6
:10299C001C4403F8011BA342FBD170BD64461346D3
:1029AC00002CF4D1F9E703461446C0E7A446E1E74E
:1029BC0070B50F4B0F4DAB42A3EB050607D00024AF
:1029CC00B61055F8043B01349847A642F9D800F0EC
:1029DC007FF8094D094B5E1BAB424FEAA60606D0A9
:1029EC00002455F8043B01349847A642F9D870BD31
:1029FC005433000854330008543300085C33000887
:102A0C00704700BF704700BF024B13B1024800F083
:102A1C0005B8704700000000352A00080023014665
:102A2C001A46184600F014B838B5074D074C2C1B45
:102A3C00A41005D0013C55F8043D9847002CF9D161
:102A4C00BDE8384000F04AB8603300085C33000839
:102A5C002DE9F8431B4D0646286898460F469146CB
:102A6C00FFF7CEFF184B1C681CB3286865681F2D38
:102A7C0022DC4EB96B1C0235636044F82570FFF7FD
:102A8C00C1FF0020BDE8F883012304EB8501C1F8E8
:102A9C008890D4F88821AB401A43022EC4F88821C0
:102AAC00C1F80881E6D1D4F88C211A43C4F88C21E2
:102ABC00E0E7064C1C60D8E7FFF7A4FF4FF0FF30AF
:102ACC00E0E700BF240000203C0100204001002072
:102ADC00F8B500BFF8BC08BC9E467047F8B500BFFF
:082AEC00F8BC08BC9E467047CF
:102AF40070617373776F72643A000000776F726B62
:102B04003A0000006F75747075743A00636F7272E6
:102B14006563740077726F6E672121000000000006
:102B2400000000000000000000000000000000F8A9
:102B340000000000000000333000000000100C060C
:102B4400100C0600000000000000000040C07840A7
:102B5400C0784000043F04043F040400007088FC73
:102B640008300000001820FF211E0000F008F000CB
:102B7400E018000000211C031E211E0000F008883C
:102B8400700000001E2123241927211010160E00A6
:102B9400000000000000000000000000000000E051
:102BA4001804020000000007182040000002041866
:102BB400E00000000040201807000000404080F0C2
:102BC400804040000202010F01020200000000F0F8
:102BD400000000000101011F0101010000000000CC
:102BE4000000000080B07000000000000000000041
:102BF40000000000000101010101010100000000CA
:102C04000000000000303000000000000000000060
:102C140080601804006018060100000000E010083D
:102C24000810E000000F102020100F00001010F812
:102C3400000000000020203F202000000070080851
:102C440008887000003028242221300000300888D1
:102C5400884830000018202020110E000000C020F9
:102C640010F8000000070424243F240000F808881A
:102C7400880808000019212020110E0000E01088A7
:102C840088180000000F112020110E0000380808D9
:102C9400C83808000000003F0000000000708808E9
:102CA40008887000001C222121221C0000E010086A
:102CB4000810E0000000312222110F00000000C0C3
:102CC400C000000000000030300000000000008060
:102CD4000000000000008060000000000000804050
:102CE4002010080000010204081020004040404069
:102CF40040404000040404040404040000081020BC
:102D04004080000000201008040201000070480800
:102D14000808F0000000003036010000C030C82868
:102D2400E810E0000718272423140B000000C03823
:102D3400E0000000203C23020227382008F888889D
:102D440088700000203F202020110E00C0300808A9
:102D540008083800071820202010080008F8080880
:102D64000810E000203F202020100F0008F8888879
:102D7400E8081000203F20202320180008F8888845
:102D8400E8081000203F200003000000C0300808BD
:102D94000838000007182020221E020008F8080046
:102DA4000008F808203F210101213F20000808F80D
:102DB400080800000020203F202000000000080830
:102DC400F8080800C08080807F00000008F888C0F0
:102DD40028180800203F20012638200008F80800A1
:102DE40000000000203F20202020300008F8F800D8
:102DF400F8F80800203F003F003F200008F830C0EA
:102E04000008F808203F200007183F00E0100808D9
:102E14000810E0000F10202020100F0008F8080808
:102E24000808F000203F210101010000E01008081B
:102E34000810E0000F18242438504F0008F8888840
:102E440088887000203F2000030C30200070880820
:102E5400080838000038202121221C00180808F82E
:102E6400080818000000203F2000000008F80800AF
:102E74000008F808001F202020201F000878880080
:102E840000C83808000007380E010000F80800F8F0
:102E94000008F800033C0700073C0300081868809A
:102EA4008068180820302C03032C30200838C80010
:102EB400C83808000000203F20000000100808085F
:102EC400C83808002038262120201800000000FE01
:102ED400020202000000007F40404000000C30C0AD
:102EE40000000000000000010638C00000020202D9
:102EF400FE000000004040407F000000000004028B
:102F040002020400000000000000000000000000B5
:102F140000000000808080808080808000020204A5
:102F2400000000000000000000000000000080809D
:102F3400808000000019242222223F2008F800800B
:102F440080000000003F112020110E0000000080CE
:102F540080800000000E112020201100000000805D
:102F64008088F800000E112020103F20000080808F
:102F740080800000001F222222221300008080F0A3
:102F8400888888180020203F2020000000008080CE
:102F940080808000006B94949493600008F8008013
:102FA40080800000203F210000203F20008098986E
:102FB400000000000020203F2020000000000080CE
:102FC4009898000000C08080807F000008F800000E
:102FD40080808000203F24022D302000000808F863
:102FE400000000000020203F20200000808080801E
:102FF40080808000203F20003F20003F80800080B0
:1030040080800000203F210000203F2000008080BD
:1030140080800000001F202020201F00808000806E
:103024008000000080FFA12020110E00000000801D
:1030340080808000000E112020A0FF80808080000E
:103044008080800020203F2120000100000080803B
:10305400808080000033242424241900008080E030
:10306400808000000000001F2020000080800000FD
:1030740000808000001F202020103F2080808000DE
:103084000080808000010E300806010080800080EE
:10309400008080800F300C030C300F000080800013
:1030A400808080000020312E0E312000808080003E
:1030B4000080808080818E701806010000808080EE
:1030C400808080000021302C22213000000000008C
:1030D400807C020200000000003F40400002027CAD
:1030E400800000000040403F00000000000000009D
:1030F400FF00000000000000FF00000000000000CE
:1031040000000000002F000000000700070000146A
:103114007F147F1400242A7F2A1200626408132378
:1031240000364955225000000503000000001C220F
:103134004100000041221C000014083E081400084D
:10314400083E0808000000A06000000808080808FD
:10315400000060600000002010080402003E514995
:10316400453E0000427F4000004261514946002133
:1031740041454B31001814127F100027454545394D
:10318400003C4A49493000017109050300364949A8
:10319400493600064949291E000036360000000061
:1031A40056360000000814224100001414141414AC
:1031B4000000412214080002015109060032495955
:1031C400513E007C1211127C007F49494936003E71
:1031D40041414122007F4141221C007F494949412C
:1031E400007F09090901003E4149497A007F080826
:1031F400087F0000417F4100002040413F01007FE3
:1032040008142241007F40404040007F020C027FAE
:10321400007F0408107F003E4141413E007F0909C0
:103224000906003E4151215E007F091929460046E6
:10323400494949310001017F0101003F4040403FBD
:10324400001F2040201F003F4038403F0063140807
:1032540014630007087008070061514945430000E2
:103264007F41410000552A552A55000041417F0005
:1032740000040201020400404040404000000102FA
:103284000400002054545478007F484444380038E3
:103294004444442000384444487F0038545454186B
:1032A40000087E0901020018A4A4A47C007F08047D
:1032B40004780000447D4000004080847D00007F4D
:1032C400102844000000417F4000007C041804786A
:1032D400007C0804047800384444443800FC242466
:1032E40024180018242418FC007C0804040800484E
:1032F4005454542000043F444020003C4040207C6F
:10330400001C2040201C003C4030403C004428105D
:103314002844001CA0A0A07C004464544C44141411
:10332400141414140000000001020304000000003F
:10333400000000000102030406070809010200005E
:1033440002030405060708090A0B0C0D0E0F1010E2
:08335400152A000875010008AC
:04335C004D01000817
:10336000AED580A83FD30040A1C8DA1281CFD9F1F1
:10337000DB40A4A68D14AF0000127A00010000000B
:083380001000000038010020DC
:04000005080011C11D
:00000001FF
